S00E00006D61737465722E737265638A
S11300000C942A000C9434000C9434000C943400A6
S11300100C9434000C9434000C9434000C9434008C
S11300200C9434000C9434000C9434000C9434007C
S11300300C9434000C9434000C9434000C9434006C
S11300400C9434000C9434000C9434000C9434005C
S11300500C94340011241FBECFE5D8E0DEBFCDBF21
S11300600E9436000C9481000C9400000E946600EB
S11300700E94750080E00E9471000E947D00843619
S1130080A9F028F4813651F08336E1F0F6CF8837B1
S1130090A9F08A3779F0833781F704C081E30E949D
S11300A06D00EBCF82E30E946D00E7CF83E30E94F3
S11300B06D00E3CF84E30E946D00DFCF85E30E94EF
S11300C06D00DBCF86E30E946D00D7CFBD9ABE984A
S11300D0BF9ABC9A83E58DB908958FB9779BFECFFB
S11300E00895811101C0C498089588E18AB986E809
S11300F080BD87E689B910BC08955F9BFECF8CB1A3
S10901000895F894FFCFFE
S9030000FC
